:107800000C94343C0C94513C0C94513C0C94513CE1
:107810000C94513C0C94513C0C94513C0C94513CB4
:107820000C94513C0C94513C0C94513C0C94513CA4
:107830000C94513C0C94513C0C94513C0C94513C94
:107840000C94513C0C94513C0C94513C0C94513C84
:107850000C94513C0C94513C0C94513C0C94513C74
:107860000C94513C0C94513C11241FBECFEFD8E036
:10787000DEBFCDBF11E0A0E0B1E0E8E0FBE702C071
:1078800005900D92A630B107D9F712E0A6E0B1E05D
:1078900001C01D92AB30B107E1F70E94C03C0C94CF
:1078A000823D0C94003C0F931F93CF93DF93DA013A
:1078B0001FB7F894F999FECF83E0FB01809357003E
:1078C000E89507B600FCFDCFCB0180589F4FFB0128
:1078D00001E04C9111963C91119720E0E901C40F11
:1078E000D11D12960E0100935700E895112432968F
:1078F000E817F90771F785E0FB0180935700E895D9
:1079000007B600FCFDCF81E180935700E8951FBFCB
:10791000DF91CF911F910F9108959091C00095FF35
:10792000FCCF8093C60008958EE40E948D3C8FE4C6
:107930000E948D3C84E40E948D3C85E40E948D3C35
:1079400080E30E948D3C089581E08093050180E0F2
:1079500090E0DC010EC00196A11DB11D813A26E820
:10796000920721E0A20720E0B20719F41092050166
:1079700004C02091C00027FFEECF8091C60008957B
:10798000CF92DF92EF92FF920F931F93CF93DF93EB
:107990001092C50083E38093C40088E18093C10006
:1079A00085E00E948D3CEE24FF24870113C00894DB
:1079B000E11CF11C011D111D81EAE81686E8F8069C
:1079C00081E0080780E0180728F0E0910601F091B7
:1079D000070109958091C00087FFE9CF8091C6001B
:1079E000863029F0E0910601F091070109950E9487
:1079F000943C80E091E1D92E882311F087E001C00A
:107A000084E50E948D3C0E94A43C8A3329F0809139
:107A100005018823C1F7F2CF0E94A43C809308019E
:107A200090910501992351F3863759F40E948D3CBA
:107A300081E30E948D3C8EE20E948D3C80E30E9497
:107A40008D3C809108018B3611F40E94943C80910A
:107A50000801833541F4D0925700E895E091060182
:107A6000F091070109950E94A43C8093090280913E
:107A70000501882309F4C2CF0E94A43C80930A0226
:107A800080910501882309F4B9CF0E94A43CC82E37
:107A900080910501882309F4B1CFC9E0D1E07E01CE
:107AA00000E010E00CC00E94A43CF70181937F012C
:107AB00080910501882309F4A1CF0F5F1F4F90919A
:107AC0000801292F30E00217130768F3275F3E4FA4
:107AD00002C08991C80EC217D307D9F780910A0254
:107AE00020910902820F890F8C0D09F085CF6091DA
:107AF000090270910A0280E090E049E051E00E94A2
:087B0000533C7ECFF894FFCF47
:067B08004E4F4445300120
:040000030000780081
:00000001FF
